{
  "_format": "hh-sol-artifact-1",
  "contractName": "AlpacaAggregator",
  "sourceName": "contracts/6/protocol/aggregator/AlpacaAggregator.sol",
  "abi": [
    {
      "inputs": [
        {
          "internalType": "address payable",
          "name": "vault",
          "type": "address"
        },
        {
          "internalType": "address",
          "name": "worker",
          "type": "address"
        },
        {
          "internalType": "uint256[]",
          "name": "positionIds",
          "type": "uint256[]"
        }
      ],
      "name": "allInOne",
      "outputs": [
        {
          "components": [
            {
              "components": [
                {
                  "internalType": "address",
                  "name": "debtToken",
                  "type": "address"
                },
                {
                  "internalType": "uint256",
                  "name": "vaultDebtShare",
                  "type": "uint256"
                },
                {
                  "internalType": "uint256",
                  "name": "vaultDebtVal",
                  "type": "uint256"
                },
                {
                  "internalType": "address",
                  "name": "workerBaseToken",
                  "type": "address"
                },
                {
                  "internalType": "address",
                  "name": "workerFarmingToken",
                  "type": "address"
                },
                {
                  "internalType": "address",
                  "name": "workerLpToken",
                  "type": "address"
                },
                {
                  "internalType": "uint256",
                  "name": "workerTotalShare",
                  "type": "uint256"
                },
                {
                  "internalType": "uint256",
                  "name": "workerTotalBalance",
                  "type": "uint256"
                },
                {
                  "internalType": "enum AlpacaAggregator.DEX",
                  "name": "lpDex",
                  "type": "uint8"
                },
                {
                  "internalType": "uint256",
                  "name": "lpFeeDenom",
                  "type": "uint256"
                },
                {
                  "internalType": "uint256",
                  "name": "lpFee",
                  "type": "uint256"
                },
                {
                  "internalType": "address",
                  "name": "lpFactory",
                  "type": "address"
                }
              ],
              "internalType": "struct AlpacaAggregator.VaultAndWorkerInfo",
              "name": "vaultAndWorkerInfo",
              "type": "tuple"
            },
            {
              "components": [
                {
                  "internalType": "string",
                  "name": "name",
                  "type": "string"
                },
                {
                  "internalType": "uint256",
                  "name": "totalSupply",
                  "type": "uint256"
                },
                {
                  "internalType": "uint256",
                  "name": "r0",
                  "type": "uint256"
                },
                {
                  "internalType": "uint256",
                  "name": "r1",
                  "type": "uint256"
                },
                {
                  "internalType": "address",
                  "name": "token0",
                  "type": "address"
                },
                {
                  "internalType": "address",
                  "name": "token1",
                  "type": "address"
                },
                {
                  "internalType": "uint256",
                  "name": "pairFee",
                  "type": "uint256"
                }
              ],
              "internalType": "struct AlpacaAggregator.LPDetail",
              "name": "lpDetail",
              "type": "tuple"
            },
            {
              "components": [
                {
                  "internalType": "address",
                  "name": "worker",
                  "type": "address"
                },
                {
                  "internalType": "address",
                  "name": "owner",
                  "type": "address"
                },
                {
                  "internalType": "uint256",
                  "name": "debtShare",
                  "type": "uint256"
                },
                {
                  "internalType": "uint256",
                  "name": "lpShare",
                  "type": "uint256"
                }
              ],
              "internalType": "struct AlpacaAggregator.AggregatedPosition[]",
              "name": "positions",
              "type": "tuple[]"
            }
          ],
          "internalType": "struct AlpacaAggregator.AllInOne",
          "name": "",
          "type": "tuple"
        }
      ],
      "stateMutability": "view",
      "type": "function"
    },
    {
      "inputs": [
        {
          "internalType": "address",
          "name": "lp",
          "type": "address"
        }
      ],
      "name": "lpDetail",
      "outputs": [
        {
          "components": [
            {
              "internalType": "string",
              "name": "name",
              "type": "string"
            },
            {
              "internalType": "uint256",
              "name": "totalSupply",
              "type": "uint256"
            },
            {
              "internalType": "uint256",
              "name": "r0",
              "type": "uint256"
            },
            {
              "internalType": "uint256",
              "name": "r1",
              "type": "uint256"
            },
            {
              "internalType": "address",
              "name": "token0",
              "type": "address"
            },
            {
              "internalType": "address",
              "name": "token1",
              "type": "address"
            },
            {
              "internalType": "uint256",
              "name": "pairFee",
              "type": "uint256"
            }
          ],
          "internalType": "struct AlpacaAggregator.LPDetail",
          "name": "",
          "type": "tuple"
        }
      ],
      "stateMutability": "view",
      "type": "function"
    },
    {
      "inputs": [
        {
          "internalType": "address[]",
          "name": "lps",
          "type": "address[]"
        }
      ],
      "name": "lpsDetail",
      "outputs": [
        {
          "components": [
            {
              "internalType": "string",
              "name": "name",
              "type": "string"
            },
            {
              "internalType": "uint256",
              "name": "totalSupply",
              "type": "uint256"
            },
            {
              "internalType": "uint256",
              "name": "r0",
              "type": "uint256"
            },
            {
              "internalType": "uint256",
              "name": "r1",
              "type": "uint256"
            },
            {
              "internalType": "address",
              "name": "token0",
              "type": "address"
            },
            {
              "internalType": "address",
              "name": "token1",
              "type": "address"
            },
            {
              "internalType": "uint256",
              "name": "pairFee",
              "type": "uint256"
            }
          ],
          "internalType": "struct AlpacaAggregator.LPDetail[]",
          "name": "",
          "type": "tuple[]"
        }
      ],
      "stateMutability": "view",
      "type": "function"
    },
    {
      "inputs": [
        {
          "internalType": "address payable",
          "name": "vault",
          "type": "address"
        },
        {
          "internalType": "uint256[]",
          "name": "ids",
          "type": "uint256[]"
        }
      ],
      "name": "positionsInfo",
      "outputs": [
        {
          "components": [
            {
              "internalType": "address",
              "name": "worker",
              "type": "address"
            },
            {
              "internalType": "address",
              "name": "owner",
              "type": "address"
            },
            {
              "internalType": "uint256",
              "name": "debtShare",
              "type": "uint256"
            },
            {
              "internalType": "uint256",
              "name": "lpShare",
              "type": "uint256"
            }
          ],
          "internalType": "struct AlpacaAggregator.AggregatedPosition[]",
          "name": "",
          "type": "tuple[]"
        }
      ],
      "stateMutability": "view",
      "type": "function"
    },
    {
      "inputs": [
        {
          "internalType": "address[]",
          "name": "tokens",
          "type": "address[]"
        },
        {
          "internalType": "address",
          "name": "user",
          "type": "address"
        }
      ],
      "name": "tokenInfos",
      "outputs": [
        {
          "components": [
            {
              "internalType": "string",
              "name": "name",
              "type": "string"
            },
            {
              "internalType": "string",
              "name": "symbol",
              "type": "string"
            },
            {
              "internalType": "uint8",
              "name": "decimals",
              "type": "uint8"
            },
            {
              "internalType": "uint256",
              "name": "balance",
              "type": "uint256"
            }
          ],
          "internalType": "struct AlpacaAggregator.TokenInfo[]",
          "name": "",
          "type": "tuple[]"
        }
      ],
      "stateMutability": "view",
      "type": "function"
    },
    {
      "inputs": [
        {
          "internalType": "address payable",
          "name": "vault",
          "type": "address"
        },
        {
          "internalType": "address",
          "name": "worker",
          "type": "address"
        }
      ],
      "name": "vaultAndWorkerInfo",
      "outputs": [
        {
          "components": [
            {
              "internalType": "address",
              "name": "debtToken",
              "type": "address"
            },
            {
              "internalType": "uint256",
              "name": "vaultDebtShare",
              "type": "uint256"
            },
            {
              "internalType": "uint256",
              "name": "vaultDebtVal",
              "type": "uint256"
            },
            {
              "internalType": "address",
              "name": "workerBaseToken",
              "type": "address"
            },
            {
              "internalType": "address",
              "name": "workerFarmingToken",
              "type": "address"
            },
            {
              "internalType": "address",
              "name": "workerLpToken",
              "type": "address"
            },
            {
              "internalType": "uint256",
              "name": "workerTotalShare",
              "type": "uint256"
            },
            {
              "internalType": "uint256",
              "name": "workerTotalBalance",
              "type": "uint256"
            },
            {
              "internalType": "enum AlpacaAggregator.DEX",
              "name": "lpDex",
              "type": "uint8"
            },
            {
              "internalType": "uint256",
              "name": "lpFeeDenom",
              "type": "uint256"
            },
            {
              "internalType": "uint256",
              "name": "lpFee",
              "type": "uint256"
            },
            {
              "internalType": "address",
              "name": "lpFactory",
              "type": "address"
            }
          ],
          "internalType": "struct AlpacaAggregator.VaultAndWorkerInfo",
          "name": "",
          "type": "tuple"
        }
      ],
      "stateMutability": "view",
      "type": "function"
    },
    {
      "inputs": [
        {
          "internalType": "address",
          "name": "worker",
          "type": "address"
        }
      ],
      "name": "workerHelperInfo",
      "outputs": [
        {
          "components": [
            {
              "internalType": "uint256",
              "name": "totalBalance",
              "type": "uint256"
            },
            {
              "internalType": "enum AlpacaAggregator.DEX",
              "name": "dex",
              "type": "uint8"
            },
            {
              "internalType": "uint256",
              "name": "feeDenom",
              "type": "uint256"
            },
            {
              "internalType": "uint256",
              "name": "fee",
              "type": "uint256"
            },
            {
              "internalType": "address",
              "name": "factory",
              "type": "address"
            }
          ],
          "internalType": "struct AlpacaAggregator.WorkerHelperInfo",
          "name": "",
          "type": "tuple"
        }
      ],
      "stateMutability": "view",
      "type": "function"
    },
    {
      "inputs": [
        {
          "internalType": "address",
          "name": "worker",
          "type": "address"
        }
      ],
      "name": "workerInfo",
      "outputs": [
        {
          "components": [
            {
              "internalType": "address",
              "name": "lpToken",
              "type": "address"
            },
            {
              "internalType": "address",
              "name": "baseToken",
              "type": "address"
            },
            {
              "internalType": "address",
              "name": "farmingToken",
              "type": "address"
            },
            {
              "internalType": "uint256",
              "name": "totalShare",
              "type": "uint256"
            },
            {
              "internalType": "uint256",
              "name": "totalBalance",
              "type": "uint256"
            },
            {
              "internalType": "enum AlpacaAggregator.DEX",
              "name": "dex",
              "type": "uint8"
            },
            {
              "internalType": "uint256",
              "name": "feeDenom",
              "type": "uint256"
            },
            {
              "internalType": "uint256",
              "name": "fee",
              "type": "uint256"
            },
            {
              "internalType": "address",
              "name": "factory",
              "type": "address"
            }
          ],
          "internalType": "struct AlpacaAggregator.WorkerInfo",
          "name": "",
          "type": "tuple"
        }
      ],
      "stateMutability": "view",
      "type": "function"
    },
    {
      "inputs": [
        {
          "internalType": "address payable",
          "name": "vault",
          "type": "address"
        },
        {
          "internalType": "address",
          "name": "worker",
          "type": "address"
        }
      ],
      "name": "workerKillFactor",
      "outputs": [
        {
          "internalType": "uint256",
          "name": "",
          "type": "uint256"
        }
      ],
      "stateMutability": "view",
      "type": "function"
    }
  ],
  "bytecode": "0x608060405234801561001057600080fd5b506125fb806100206000396000f3fe608060405234801561001057600080fd5b50600436106100835760003560e01c8063061c6208146100885780630a6f0503146100b15780630ec6e8aa146100d157806311003d65146100f15780631b240baa1461011157806320f53f1914610131578063481cf1b5146101515780634f83343714610171578063ba67140714610191575b600080fd5b61009b610096366004611d71565b6101b1565b6040516100a89190612466565b60405180910390f35b6100c46100bf366004611d39565b610584565b6040516100a891906124bd565b6100e46100df366004611da9565b6107ea565b6040516100a891906123db565b6101046100ff366004611e0b565b610872565b6040516100a8919061226a565b61012461011f366004611d39565b6108b9565b6040516100a89190612475565b61014461013f366004611ede565b611105565b6040516100a89190612313565b61016461015f366004611d71565b611405565b6040516100a8919061254c565b61018461017f366004611d39565b6114fd565b6040516100a89190612453565b6101a461019f366004611e9f565b6118c8565b6040516100a891906122b3565b6101b9611b54565b6101c1611bc0565b6101ca836108b9565b9050604051806101800160405280856001600160a01b031663f8d898986040518163ffffffff1660e01b815260040160206040518083038186803b15801561021157600080fd5b505afa158015610225573d6000803e3d6000fd5b505050506040513d601f19601f820116820180604052508101906102499190611d55565b6001600160a01b03168152602001856001600160a01b03166376c46b7b6040518163ffffffff1660e01b815260040160206040518083038186803b15801561029057600080fd5b505afa1580156102a4573d6000803e3d6000fd5b505050506040513d601f19601f820116820180604052508101906102c89190612015565b8152602001856001600160a01b0316630a355d7d6040518163ffffffff1660e01b815260040160206040518083038186803b15801561030657600080fd5b505afa15801561031a573d6000803e3d6000fd5b505050506040513d601f19601f8201168201806040525081019061033e9190612015565b8152602001846001600160a01b031663c55dae636040518163ffffffff1660e01b815260040160206040518083038186803b15801561037c57600080fd5b505afa158015610390573d6000803e3d6000fd5b505050506040513d601f19601f820116820180604052508101906103b49190611d55565b6001600160a01b03168152602001846001600160a01b031663ad24dce76040518163ffffffff1660e01b815260040160206040518083038186803b1580156103fb57600080fd5b505afa15801561040f573d6000803e3d6000fd5b505050506040513d601f19601f820116820180604052508101906104339190611d55565b6001600160a01b03168152602001846001600160a01b0316635fcbd2856040518163ffffffff1660e01b815260040160206040518083038186803b15801561047a57600080fd5b505afa15801561048e573d6000803e3d6000fd5b505050506040513d601f19601f820116820180604052508101906104b29190611d55565b6001600160a01b03168152602001846001600160a01b031663026c42076040518163ffffffff1660e01b815260040160206040518083038186803b1580156104f957600080fd5b505afa15801561050d573d6000803e3d6000fd5b505050506040513d601f19601f820116820180604052508101906105319190612015565b8152602001826000015181526020018260200151600281111561055057fe5b8152602001826040015181526020018260600151815260200182608001516001600160a01b03168152509150505b92915050565b61058c611bda565b610594611bc0565b61059d836108b9565b9050604051806101200160405280846001600160a01b0316635fcbd2856040518163ffffffff1660e01b815260040160206040518083038186803b1580156105e457600080fd5b505afa1580156105f8573d6000803e3d6000fd5b505050506040513d601f19601f8201168201806040525081019061061c9190611d55565b6001600160a01b03168152602001846001600160a01b031663c55dae636040518163ffffffff1660e01b815260040160206040518083038186803b15801561066357600080fd5b505afa158015610677573d6000803e3d6000fd5b505050506040513d601f19601f8201168201806040525081019061069b9190611d55565b6001600160a01b03168152602001846001600160a01b031663ad24dce76040518163ffffffff1660e01b815260040160206040518083038186803b1580156106e257600080fd5b505afa1580156106f6573d6000803e3d6000fd5b505050506040513d601f19601f8201168201806040525081019061071a9190611d55565b6001600160a01b03168152602001846001600160a01b031663026c42076040518163ffffffff1660e01b815260040160206040518083038186803b15801561076157600080fd5b505afa158015610775573d6000803e3d6000fd5b505050506040513d601f19601f820116820180604052508101906107999190612015565b815260200182600001518152602001826020015160028111156107b857fe5b8152602001826040015181526020018260600151815260200182608001516001600160a01b0316815250915050919050565b6107f2611c10565b6107fa611b54565b61080486866101b1565b905060405180606001604052808281526020016108248360a001516114fd565b81526020016108668887878080602002602001604051908101604052809392919081815260200183836020028082843760009201919091525061197492505050565b90529695505050505050565b60606108b18484848080602002602001604051908101604052809392919081815260200183836020028082843760009201919091525061197492505050565b949350505050565b6108c1611bc0565b6000826001600160a01b031663c45a01556040518163ffffffff1660e01b815260040160206040518083038186803b1580156108fc57600080fd5b505afa158015610910573d6000803e3d6000fd5b505050506040513d601f19601f820116820180604052508101906109349190611d55565b905060008080806001600160a01b03851673bcfccbde45ce874adcb698cc183debcf17952812148061098257506001600160a01b03851673ca143ce32fe78f1f7019d7d551a6402fc5350c73145b15610c11576001600160a01b03851673bcfccbde45ce874adcb698cc183debcf1795281214156109ba57506103e690506103e8610aa1565b866001600160a01b031663ddca3f436040518163ffffffff1660e01b815260040160206040518083038186803b1580156109f357600080fd5b505afa158015610a07573d6000803e3d6000fd5b505050506040513d601f19601f82011682018060405250810190610a2b9190612015565b9150866001600160a01b03166319a865776040518163ffffffff1660e01b815260040160206040518083038186803b158015610a6657600080fd5b505afa158015610a7a573d6000803e3d6000fd5b505050506040513d601f19601f82011682018060405250810190610a9e9190612015565b90505b600092506000876001600160a01b031663575a86b26040518163ffffffff1660e01b815260040160206040518083038186803b158015610ae057600080fd5b505afa158015610af4573d6000803e3d6000fd5b505050506040513d601f19601f82011682018060405250810190610b189190611d55565b9050806001600160a01b03166393f1a40b896001600160a01b031663f10684546040518163ffffffff1660e01b815260040160206040518083038186803b158015610b6257600080fd5b505afa158015610b76573d6000803e3d6000fd5b505050506040513d601f19601f82011682018060405250810190610b9a9190612015565b8a6040518363ffffffff1660e01b8152600401610bb8929190612555565b604080518083038186803b158015610bcf57600080fd5b505afa158015610be3573d6000803e3d6000fd5b505050506040513d601f19601f82011682018060405250810190610c07919061202d565b5094506110959050565b6001600160a01b038516733cd1c46068daea5ebb0d3f55f6915b10648062b81415610e1c5760019250866001600160a01b03166319a865776040518163ffffffff1660e01b815260040160206040518083038186803b158015610c7357600080fd5b505afa158015610c87573d6000803e3d6000fd5b505050506040513d601f19601f82011682018060405250810190610cab9190612015565b90506000876001600160a01b031663ea3ec12d6040518163ffffffff1660e01b815260040160206040518083038186803b158015610ce857600080fd5b505afa158015610cfc573d6000803e3d6000fd5b505050506040513d601f19601f82011682018060405250810190610d209190611d55565b9050806001600160a01b03166393f1a40b896001600160a01b031663f10684546040518163ffffffff1660e01b815260040160206040518083038186803b158015610d6a57600080fd5b505afa158015610d7e573d6000803e3d6000fd5b505050506040513d601f19601f82011682018060405250810190610da29190612015565b8a6040518363ffffffff1660e01b8152600401610dc0929190612555565b60606040518083038186803b158015610dd857600080fd5b505afa158015610dec573d6000803e3d6000fd5b505050506040513d601f19601f82011682018060405250810190610e109190612050565b50909550611095915050565b6001600160a01b03851673b42e3fe71b7e0673335b3331b3e1053bd982257014156110955760029250866001600160a01b03166319a865776040518163ffffffff1660e01b815260040160206040518083038186803b158015610e7e57600080fd5b505afa158015610e92573d6000803e3d6000fd5b505050506040513d601f19601f82011682018060405250810190610eb69190612015565b9050866001600160a01b031663ddca3f436040518163ffffffff1660e01b815260040160206040518083038186803b158015610ef157600080fd5b505afa158015610f05573d6000803e3d6000fd5b505050506040513d601f19601f82011682018060405250810190610f299190612015565b91506000876001600160a01b0316633b13899b6040518163ffffffff1660e01b815260040160206040518083038186803b158015610f6657600080fd5b505afa158015610f7a573d6000803e3d6000fd5b505050506040513d601f19601f82011682018060405250810190610f9e9190611d55565b9050806001600160a01b03166393f1a40b896001600160a01b031663f10684546040518163ffffffff1660e01b815260040160206040518083038186803b158015610fe857600080fd5b505afa158015610ffc573d6000803e3d6000fd5b505050506040513d601f19601f820116820180604052508101906110209190612015565b8a6040518363ffffffff1660e01b815260040161103e929190612555565b60606040518083038186803b15801561105657600080fd5b505afa15801561106a573d6000803e3d6000fd5b505050506040513d601f19601f8201168201806040525081019061108e9190612050565b5090955050505b600084116110be5760405162461bcd60e51b81526004016110b5906123b7565b60405180910390fd5b6040518060a001604052808581526020018460028111156110db57fe5b8152602001828152602001838152602001866001600160a01b031681525095505050505050919050565b606080836001600160401b038111801561111e57600080fd5b5060405190808252806020026020018201604052801561115857816020015b611145611c3d565b81526020019060019003908161113d5790505b50905060005b848110156113fc57604051806080016040528087878481811061117d57fe5b90506020020160208101906111929190611d39565b6001600160a01b03166306fdde036040518163ffffffff1660e01b815260040160006040518083038186803b1580156111ca57600080fd5b505afa1580156111de573d6000803e3d6000fd5b505050506040513d6000823e601f3d908101601f191682016040526112069190810190611f32565b815260200187878481811061121757fe5b905060200201602081019061122c9190611d39565b6001600160a01b03166395d89b416040518163ffffffff1660e01b815260040160006040518083038186803b15801561126457600080fd5b505afa158015611278573d6000803e3d6000fd5b505050506040513d6000823e601f3d908101601f191682016040526112a09190810190611f32565b81526020018787848181106112b157fe5b90506020020160208101906112c69190611d39565b6001600160a01b031663313ce5676040518163ffffffff1660e01b815260040160206040518083038186803b1580156112fe57600080fd5b505afa158015611312573d6000803e3d6000fd5b505050506040513d601f19601f82011682018060405250810190611336919061207d565b60ff16815260200187878481811061134a57fe5b905060200201602081019061135f9190611d39565b6001600160a01b03166370a08231876040518263ffffffff1660e01b815260040161138a919061223d565b60206040518083038186803b1580156113a257600080fd5b505afa1580156113b6573d6000803e3d6000fd5b505050506040513d601f19601f820116820180604052508101906113da9190612015565b8152508282815181106113e957fe5b602090810291909101015260010161115e565b50949350505050565b6000826001600160a01b03166379502c556040518163ffffffff1660e01b815260040160206040518083038186803b15801561144057600080fd5b505afa158015611454573d6000803e3d6000fd5b505050506040513d601f19601f820116820180604052508101906114789190611d55565b6001600160a01b03166313f6321b8360006040518363ffffffff1660e01b81526004016114a6929190612251565b60206040518083038186803b1580156114be57600080fd5b505afa1580156114d2573d6000803e3d6000fd5b505050506040513d601f19601f820116820180604052508101906114f69190612015565b9392505050565b611505611c68565b600080836001600160a01b0316630902f1ac6040518163ffffffff1660e01b815260040160606040518083038186803b15801561154157600080fd5b505afa158015611555573d6000803e3d6000fd5b505050506040513d601f19601f820116820180604052508101906115799190611fcc565b50915091506000809050733cd1c46068daea5ebb0d3f55f6915b10648062b86001600160a01b0316856001600160a01b031663c45a01556040518163ffffffff1660e01b815260040160206040518083038186803b1580156115da57600080fd5b505afa1580156115ee573d6000803e3d6000fd5b505050506040513d601f19601f820116820180604052508101906116129190611d55565b6001600160a01b031614156116ab57604051634c2fc06f60e01b8152733cd1c46068daea5ebb0d3f55f6915b10648062b890634c2fc06f9061165890889060040161223d565b60206040518083038186803b15801561167057600080fd5b505afa158015611684573d6000803e3d6000fd5b505050506040513d601f19601f820116820180604052508101906116a89190612015565b90505b6000856001600160a01b0316630dfe16816040518163ffffffff1660e01b815260040160206040518083038186803b1580156116e657600080fd5b505afa1580156116fa573d6000803e3d6000fd5b505050506040513d601f19601f8201168201806040525081019061171e9190611d55565b90506000866001600160a01b031663d21220a76040518163ffffffff1660e01b815260040160206040518083038186803b15801561175b57600080fd5b505afa15801561176f573d6000803e3d6000fd5b505050506040513d601f19601f820116820180604052508101906117939190611d55565b90506040518060e00160405280886001600160a01b03166306fdde036040518163ffffffff1660e01b815260040160006040518083038186803b1580156117d957600080fd5b505afa1580156117ed573d6000803e3d6000fd5b505050506040513d6000823e601f3d908101601f191682016040526118159190810190611f32565b8152602001886001600160a01b03166318160ddd6040518163ffffffff1660e01b815260040160206040518083038186803b15801561185357600080fd5b505afa158015611867573d6000803e3d6000fd5b505050506040513d601f19601f8201168201806040525081019061188b9190612015565b81526001600160701b0396871660208201529490951660408501526001600160a01b03918216606085015216608083015260a09091015292915050565b606080826001600160401b03811180156118e157600080fd5b5060405190808252806020026020018201604052801561191b57816020015b611908611c68565b8152602001906001900390816119005790505b50905060005b8381101561196c5761194d85858381811061193857fe5b905060200201602081019061017f9190611d39565b82828151811061195957fe5b6020908102919091010152600101611921565b509392505050565b60608082516001600160401b038111801561198e57600080fd5b506040519080825280602002602001820160405280156119c857816020015b6119b5611cb7565b8152602001906001900390816119ad5790505b50905060005b835181101561196c576000806000876001600160a01b03166399fbab888886815181106119f757fe5b60200260200101516040518263ffffffff1660e01b8152600401611a1b919061254c565b60606040518083038186803b158015611a3357600080fd5b505afa158015611a47573d6000803e3d6000fd5b505050506040513d601f19601f82011682018060405250810190611a6b9190611e5d565b9250925092506040518060800160405280846001600160a01b03168152602001836001600160a01b03168152602001828152602001846001600160a01b03166357a858fc8a8881518110611abb57fe5b60200260200101516040518263ffffffff1660e01b8152600401611adf919061254c565b60206040518083038186803b158015611af757600080fd5b505afa158015611b0b573d6000803e3d6000fd5b505050506040513d601f19601f82011682018060405250810190611b2f9190612015565b815250858581518110611b3e57fe5b60209081029190910101525050506001016119ce565b6040805161018081018252600080825260208201819052918101829052606081018290526080810182905260a0810182905260c0810182905260e08101829052906101008201905b8152602001600081526020016000815260200160006001600160a01b031681525090565b6040805160a0810190915260008082526020820190611b9c565b604080516101208101825260008082526020820181905291810182905260608101829052608081018290529060a0820190611b9c565b6040518060600160405280611c23611b54565b8152602001611c30611c68565b8152602001606081525090565b60405180608001604052806060815260200160608152602001600060ff168152602001600081525090565b6040518060e001604052806060815260200160008152602001600081526020016000815260200160006001600160a01b0316815260200160006001600160a01b03168152602001600081525090565b604051806080016040528060006001600160a01b0316815260200160006001600160a01b0316815260200160008152602001600081525090565b60008083601f840112611d02578182fd5b5081356001600160401b03811115611d18578182fd5b6020830191508360208083028501011115611d3257600080fd5b9250929050565b600060208284031215611d4a578081fd5b81356114f681612598565b600060208284031215611d66578081fd5b81516114f681612598565b60008060408385031215611d83578081fd5b8235611d8e81612598565b91506020830135611d9e81612598565b809150509250929050565b60008060008060608587031215611dbe578182fd5b8435611dc981612598565b93506020850135611dd981612598565b925060408501356001600160401b03811115611df3578283fd5b611dff87828801611cf1565b95989497509550505050565b600080600060408486031215611e1f578283fd5b8335611e2a81612598565b925060208401356001600160401b03811115611e44578283fd5b611e5086828701611cf1565b9497909650939450505050565b600080600060608486031215611e71578283fd5b8351611e7c81612598565b6020850151909350611e8d81612598565b80925050604084015190509250925092565b60008060208385031215611eb1578182fd5b82356001600160401b03811115611ec6578283fd5b611ed285828601611cf1565b90969095509350505050565b600080600060408486031215611ef2578283fd5b83356001600160401b03811115611f07578384fd5b611f1386828701611cf1565b9094509250506020840135611f2781612598565b809150509250925092565b600060208284031215611f43578081fd5b81516001600160401b0380821115611f59578283fd5b81840185601f820112611f6a578384fd5b8051925081831115611f7a578384fd5b604051601f8401601f191681016020018381118282101715611f9a578586fd5b604052838152818401602001871015611fb1578485fd5b611fc284602083016020850161256c565b9695505050505050565b600080600060608486031215611fe0578283fd5b8351611feb816125b0565b6020850151909350611ffc816125b0565b604085015190925063ffffffff81168114611f27578182fd5b600060208284031215612026578081fd5b5051919050565b6000806040838503121561203f578182fd5b505080516020909101519092909150565b600080600060608486031215612064578081fd5b8351925060208401519150604084015190509250925092565b60006020828403121561208e578081fd5b815160ff811681146114f6578182fd5b80516001600160a01b03908116835260208083015190911690830152604080820151908301526060908101519082015260800190565b6001600160a01b03169052565b600381106120eb57fe5b9052565b6000815180845261210781602086016020860161256c565b601f01601f19169290920160200192915050565b6000815160e0845261213060e08501826120ef565b6020840151602086015260408401516040860152606084015160608601526080840151915060018060a01b0380831660808701528060a08601511660a08701525060c084015160c0860152809250505092915050565b6121918282516120d4565b602081015160208301526040810151604083015260608101516121b760608401826120d4565b5060808101516121ca60808401826120d4565b5060a08101516121dd60a08401826120d4565b5060c081015160c083015260e081015160e083015261010080820151612205828501826120e1565b50506101208181015190830152610140808201519083015261016080820151612230828501826120d4565b50505050565b60ff169052565b6001600160a01b0391909116815260200190565b6001600160a01b03929092168252602082015260400190565b6020808252825182820181905260009190848201906040850190845b818110156122a75761229983855161209e565b938501939250600101612286565b50909695505050505050565b6000602080830181845280855180835260408601915060408482028701019250838701855b8281101561230657603f198886030184526122f485835161211b565b945092850192908501906001016122d8565b5092979650505050505050565b60208082528251828201819052600091906040908185019080840286018301878501865b838110156123a957603f1989840301855281516080815181865261235d828701826120ef565b8a84015192508681038b88015261237481846120ef565b91505088830151915061238989870183612236565b606092830151959092019490945294870194925090860190600101612337565b509098975050505050505050565b6020808252600a90820152696e6f2062616c616e636560b01b604082015260600190565b600060208083526123ef8184018551612186565b808401516101c0806101a086015261240b6101e086018361211b565b6040870151868203601f1901928701929092528151808252859350908401918401905b808410156122a75761244183835161209e565b9250848201915060018401935061242e565b6000602082526114f6602083018461211b565b610180810161057e8284612186565b8151815260208083015160a0830191612490908401826120e1565b50604083015160408301526060830151606083015260018060a01b03608084015116608083015292915050565b81516001600160a01b031681526020808301516101208301916124e2908401826120d4565b5060408301516124f560408401826120d4565b50606083015160608301526080830151608083015260a083015161251c60a08401826120e1565b5060c083015160c083015260e083015160e083015261010080840151612544828501826120d4565b505092915050565b90815260200190565b9182526001600160a01b0316602082015260400190565b60005b8381101561258757818101518382015260200161256f565b838111156122305750506000910152565b6001600160a01b03811681146125ad57600080fd5b50565b6001600160701b03811681146125ad57600080fdfea2646970667358221220c978b85133fcb82a5dc1415975ce3166a1947e12a0264cd919a7d51397db993e64736f6c63430006060033",
  "linkReferences": {},
  "deployedLinkReferences": {}
}